:100000001AC03EC03EC03CC03BC03AC039C038C038
:1000100037C036C039C134C035C032C031C0524992
:10002000464657415645666D742066616374646147
:1000300074617800720011241FBECFE5D1E0DEBFED
:10004000CDBF10E0A0E6B0E0E2EDFFE002C0059019
:100050000D92A836B107D9F710E0A8E6B0E001C0CC
:100060001D92AA37B107E1F710E0C4E3D0E003C066
:100070002297FE0199D6C233D107D1F73FD09DC751
:10008000BFCF18951F920F920FB60F9211248F9326
:100090009F938091740090917500019690937500E4
:1000A0008093740084B7877F84BF9F918F910F9056
:1000B0000FBE0F901F9018958130910551F46F5F1E
:1000C0007F4F79F488E690E04ED58FE690E0ADD48E
:1000D0000895892B31F46F5F7F4F19F488E690E023
:1000E000A6D5089580E090E06FEF7FEFE5DF0895FB
:1000F00081E090E06FEF7FEFDFDF0895EF92FF92F6
:100100000F931F93CF93DF938CE692E020E931E0C9
:10011000F9013197F1F70197D9F7B59902C081E05C
:1001200001C082E080937300AD9A8BB780628BBF71
:10013000BD98C59A479A80B58F6080BD85B7806AA3
:1001400085BF7894E8E1FE2E75E4E72E00E41CE913
:1001500088E690E010D58150823040F485B7806207
:1001600085BF889585B78F7D85BF1BC088E690E0E9
:1001700014D58FE690E067D485B7877E806185BF10
:100180000FB6F894F1BC11BC0FBE85B7806285BF75
:10019000889585B78F7D85BF85B7877E85BFF1BC84
:1001A000E1BC26B3C8010197F1F786B390E065E0A2
:1001B000969587956A95E1F7817025FF05C088239C
:1001C00009F4C6CF92E004C0882309F0C1CF91E0C2
:1001D00080917300813011F080E004C080E09230A3
:1001E00009F481E090937300882309F4B1CF88E685
:1001F00090E0BED48FE690E024D4C0E0D0E0BE0111
:1002000054E0660F771F5A95E1F780E090E089D0BF
:1002100095D08F3F11F02196F2CF2091740030914C
:100220007500C901880F991F880F991F2F5F3F4FD5
:10023000820F931F9093750080937400BE017CD54C
:10024000BC0180916000909161006817790729F4E2
:10025000CB010196BE0170D5BC0170936100609323
:10026000600084E0660F771F8A95E1F7685F7F4F33
:1002700080E090E056D06ED09B01AC0188E690E023
:100280006FE670E0EAD464CF1F920F920FB60F9220
:1002900011242F933F934F935F936F937F938F938B
:1002A0009F93AF93BF93EF93FF9388E690E093D42F
:1002B000FF91EF91BF91AF919F918F917F916F913E
:1002C0005F914F913F912F910F900FBE0F901F9014
:1002D000189580B58D7F80BD1EB81DB8BA9AC2989A
:1002E000B99AB898C09ABB9AC39A089580B58260AB
:1002F00080BD87B3807F87BB88B38F6088BB08953C
:100300002DB93DB92DB93DB92DB93DB92DB93DB97D
:100310002DB93DB92DB93DB92DB93DB92DB93DB96D
:100320000895C39AC39821E133E193E09FB9E8DFD0
:100330008FB9E6DF7FB9E4DF6FB9E2CF21E133E1C6
:10034000DFDF8FB1089521E133E1DADF8FB1D8DF4C
:100350009FB1089521E133E1D3DF6FB1D1DF7FB1E8
:10036000CFDF8FB1CDDF9FB10895C39A0895C398B1
:1003700021E133E180E98FB9C3DF88278FB9C0DF7E
:100380008FB9BEDF8FB9BCDFBBDF9FB1B9DF8FB1E3
:10039000C39A0895FFFFFFFF020406080700080044
:1003A00009000A000B000C000D000E0010001100E7
:1003B00013001500170019001C001F002200250063
:1003C00029002D00320037003C0042004900500057
:1003D000580061006B00760082008F009D00AD0028
:1003E000BE00D100E600FD00170133015101730189
:1003F0009801C101EE01200256029202D4021C03B0
:100400006C03C30324048E04020583051006AB06A7
:1004100056071208E008C309BD0AD00BFF0C4C0EAA
:10042000BA0F4C110713EE1406175419DC1BA51E46
:10043000B6211525CA28DF2C5B314B36B93BB241BA
:1004400044487E4F71572F60CE696274FF7F2DB98B
:100450003DB92DB93DB92DB93DB92DB93DB92DB92C
:100460003DB92DB93DB92DB93DB92DB93DB98FB1C2
:100470000895CF93DF938F939F938FE0912D98D41E
:10048000FC01AAEDB4E0B695A795A083B183DF91F6
:10049000CF91AC85BD85A450B109AD018F939F93D9
:1004A0006E857F8588899989BBD1660F771F881FE4
:1004B000991F62837383848395839F918F9136966E
:1004C000A783B08710821382148220EF228321E059
:1004D00025831682DF91CF910895FC018281829558
:1004E000882B82832AF121E133E1458156814150F5
:1004F000510949F4ACDF8383AADF8483A8DF8083BA
:10050000A6DF47815085458356832DB93DB92DB966
:100510003DB92DB93DB92DB93DB92DB93DB92DB96B
:100520003DB92DB93DB92DB93DB98FB1818302C017
:1005300081818295482F50819F01ECE9F3E0652F7E
:10054000660FE60FF11D65917491E4E9F3E08770A1
:10055000E80FF11D8491850F22F0883518F088E5A9
:1005600001C08827F9018083DB01B695A795B69570
:10057000A795B695A79542FF02C0A60FB71F76951F
:10058000679541FF02C0A60FB71F7695679540FF9C
:1005900002C0A60FB71F8381948143FF06C08A1B48
:1005A0009B0B43F4812D90E805C08A0F9B1F13F429
:1005B0008FEF9FE78383948308952DB93DB92DB9BB
:1005C0003DB92DB93DB92DB93DB92DB93DB92DB9BB
:1005D0003DB92DB93DB92DB93DB98FB10895CF932E
:1005E000DF938F939F9380E1912DE2D3FC01AAE4E6
:1005F000B6E0B695A795A083B183DF91CF91AC8586
:10060000BD85A450B109AD018F939F936E857F8501
:100610008889998905D1660F771F881F991F628382
:100620007383848395839F918F91369640875187FA
:100630002FE7208311821482158220EF238321E08B
:1006400026831782DF91CF910895FC0183818295E3
:10065000882B838332F121E133E146815781415078
:10066000510951F4AADF8483A8DF8583A6DF808344
:10067000A4DF818340855185468357832DB93DB9D9
:100680002DB93DB92DB93DB92DB93DB92DB93DB9FA
:100690002DB93DB92DB93DB92DB93DB98FB1828381
:1006A00002C08281829560817181DB01AB01B695C8
:1006B000A795B695A795B695A79582FF02C0A60FF8
:1006C000B71F7695679581FF02C0A60FB71F769575
:1006D000679580FF02C0A60FB71F282F84819581E0
:1006E00023FF06C08A1B9B0B43F4812D90E805C0B5
:1006F0008A0F9B1F13F48FEF9FE784839583A6EEE9
:10070000BB27277069F0245058F0A3E3B1E041F013
:10071000A9E92A9529F0AA27B2E02A9509F0A6E6C8
:100720002227332777276627A79518F4240F351F2C
:10073000761F440F551F661FA79518F4240F351F09
:10074000761F440F551F661FA79518F4240F351FF9
:10075000761F440F551F661FA79518F4240F351FE9
:10076000761F440F551F661FA79518F4240F351FD9
:10077000761F440F551F661FA79518F4240F351FC9
:10078000761F440F551F661FA79518F4240F351FB9
:10079000761F440F551F661FA79518F4240F351FA9
:1007A000761F440F551F661FB79518F4240F351F89
:1007B000761F440F551F661FB79518F4240F351F79
:1007C000761F3F37710510F43FE706C0303040E632
:1007D000740710F030E070E6308371830895FC01F7
:1007E00024813581E2E7F4E02131310541F0EEED7D
:1007F000F5E02032310519F0882799270895F695FC
:10080000E795099482C3E82F408151813696CF0144
:10081000FA010994E82F628173818481958108959A
:100820000F931F932F933F93AF934F935F938B013E
:100830009C016627772788279927A0E15695479539
:1008400020F4600F711F821F931F000F111F221FC2
:10085000331FAA9599F75F914F91AF913F912F91D7
:100860001F910F910895EF92FF920F931F93DF93C3
:10087000CF9300D000D0CDB7DEB77B018E010F5FE4
:100880001F4FB80144E050E007D120E030E0A8015C
:10089000F701E20FF31FE491DA01A20FB31F8C916D
:1008A0008E1711F080E006C02F5F3F4F24303105D6
:1008B00079F781E00F900F900F900F90CF91DF911B
:1008C0001F910F91FF90EF9008950F931F93CF9377
:1008D000DF93EC018A01C7DF882341F0CE0119D1F3
:1008E000F801608371838283938381E0DF91CF91EC
:1008F0001F910F910895EF92FF920F931F93DF9333
:10090000CF93CDB7DEB728970FB6F894DEBF0FBEF2
:10091000CDBF8C017B016EE170E0A701D6DF88239B
:1009200009F46FC0F70180819181A281B38108969B
:10093000A11DB11D80839183A283B383C80162E2AC
:1009400070E091DF882309F45CC0C80166E270E0C2
:10095000AE014F5F5F4FB9DF882309F452C0C80171
:10096000E6D0F70195838483C801E1D0F70197832E
:100970008683C801CED0F70171876087C80164E023
:1009800070E063D0C801D3D0F70195878487C80190
:10099000CED0F7019387828769817A816051704058
:1009A000C80153D01D821E821F821886C8016AE2C8
:1009B00070E0AE014B5F5F4F88DF882311F0C80104
:1009C000A8D0A7014E5E5F4FC8016EE270E07DDFE8
:1009D0008823B9F0C8012FD0F701668B778B808F01
:1009E000918F2485358540E050E062897389848940
:1009F0009589B6D1F70126873787408B518B81E0E7
:100A000001C080E028960FB6F894DEBF0FBECDBFC0
:100A1000CF91DF911F910F91FF90EF900895FC010E
:100A200010821182128213820895FC0110821182B9
:100A3000128213820895FC01608171818281938109
:100A4000089547DC089552DC0895EF92FF920F93CA
:100A50001F93CF93DF937C018B01C0E0D0E002C0F5
:100A60006DDC2196C017D107D8F3980140E050E023
:100A7000F70180819181A281B381820F931FA41F0E
:100A8000B51F80839183A283B383DF91CF911F91A0
:100A90000F91FF90EF900895CF92DF92EF92FF9227
:100AA0000F931F93CF93DF936C017B018A01C0E00A
:100AB000D0E005C043DCF70181937F012196C01788
:100AC000D107C0F3980140E050E0F60180819181A8
:100AD000A281B381820F931FA41FB51F80839183CE
:100AE000A283B383DF91CF911F910F91FF90EF907D
:100AF000DF90CF900895FC0180819181A281B38124
:100B00000196A11DB11D80839183A283B38316DC5E
:100B10000895FC0180819181A281B3810496A11D79
:100B2000B11D80839183A283B38314DC0895FC01FB
:100B300080819181A281B3810296A11DB11D808324
:100B40009183A283B383FFDB0895FC01408351832B
:100B500062837383CB01BA01E4DB0895FC01148244
:100B6000168215820895FC0114821682158208955A
:100B7000FC0114820895FC0184810895FC01148213
:100B800080B58C6080BDBC9810BE1CBC17BC1ABC64
:100B900013BE89B78F7E89BF0895F0DF0895FC01E9
:100BA00080B5837F80BD81E080BF80E68CBD87E813
:100BB00087BD80E991E00197F1F707B400FEFDCF12
:100BC00082E08ABD80E88BBD89B7806189BFBC9A0D
:100BD00081E084830895CF93DF93EC018C81813091
:100BE00019F0823009F517C08D819E810CDE905876
:100BF0009BBD88819981AA81BB810197A109B10917
:100C000088839983AA83BB830097A105B10561F40A
:100C100082E08C8309C08BB5882321F08BB581508D
:100C20008BBD02C0CE01AADFDF91CF9108950F9353
:100C30001F938C01A3DFF80185819681E3DD1F916D
:100C40000F9108950F931F938C0198DFF801858110
:100C50009681D8DD1F910F910895AF92BF92CF92E8
:100C6000DF92EF92FF920F931F93DF93CF93CDB755
:100C7000DEB76A970FB6F894DEBF0FBECDBF6C012A
:100C80005B0179018A01FC011482858196810097BC
:100C900021F0B8DDF60116821582C501B801A70161
:100CA00054DFC5018E010F5F1F4FB80124DE88237A
:100CB00089F1C80194DDF60196838583009751F18F
:100CC000A9DDF601608371838283938329853A8548
:100CD000B9017695679580E090E060507C4D8B403F
:100CE0009F4F40E050E03CD02F3F310559F050F08D
:100CF0002C5F3F4F83E0369527958A95E1F7022FC9
:100D000012E002C0022F11E0C60149DF09BD13BF86
:100D100081E001C080E06A960FB6F894DEBF0FBE96
:100D2000CDBFCF91DF911F910F91FF90EF90DF909A
:100D3000CF90BF90AF900895AA1BBB1B51E107C095
:100D4000AA1FBB1FA617B70710F0A61BB70B881F5B
:100D5000991F5A95A9F780959095BC01CD010895EA
:100D6000A1E21A2EAA1BBB1BFD010DC0AA1FBB1FAF
:100D7000EE1FFF1FA217B307E407F50720F0A21B21
:100D8000B30BE40BF50B661F771F881F991F1A948E
:100D900069F760957095809590959B01AC01BD01B8
:100DA000CF010895EE0FFF1F0590F491E02D0994F7
:100DB000CF93DF93BC018230910510F462E070E0C4
:100DC000A0917800B0917900ED01E0E0F0E040E022
:100DD00050E021C0888199818617970769F48A813C
:100DE0009B81309719F09383828304C0909379009C
:100DF00080937800FE0134C06817790738F44115F4
:100E0000510519F08417950708F4AC01FE018A8199
:100E10009B819C01E9012097E9F641155105A9F153
:100E2000CA01861B970B049708F4BA01E0E0F0E0D2
:100E30002AC08D919C91119784179507F9F4641736
:100E4000750781F412968D919C911397309719F044
:100E50009383828304C09093790080937800FD018E
:100E600032964FC0CA01861B970BFD01E80FF91F90
:100E70006193719302978D939C9343C0FD0182818E
:100E800093819C01D9011097A1F6809176009091F1
:100E90007700892B41F480916400909165009093D4
:100EA000770080937600409166005091670041156D
:100EB000510541F44DB75EB7809162009091630097
:100EC000481B590B20917600309177002417350785
:100ED000B0F4CA01821B930B8617970780F0AB0111
:100EE0004E5F5F4F8417950750F0420F531F50938A
:100EF000770040937600F9016193719302C0E0E0BE
:100F0000F0E0CF01DF91CF910895CF93DF93009769
:100F100009F450C0EC0122971B821A82A09178003C
:100F2000B0917900109709F140E050E0AC17BD078F
:100F300008F1BB83AA83FE0121913191E20FF31FD7
:100F4000AE17BF0779F48D919C911197280F391F27
:100F50002E5F3F4F3983288312968D919C91139772
:100F60009B838A834115510571F4D0937900C09316
:100F7000780020C012968D919C911397AD01009737
:100F800011F0DC01D3CFFA01D383C28321913191D7
:100F9000E20FF31FCE17DF0769F488819981280FCC
:100FA000391F2E5F3F4FFA01318320838A819B8155
:100FB00093838283DF91CF91089510E0C4E3D0E062
:100FC00003C0FE01F1DE2296C633D107D1F7F894B3
:020FD000FFCF51
:080FD200FFFF20007A0000007F
:00000001FF
